:020000040800F2
:1000000000000220312600082924000831240008BD
:100010003924000841240008492400080000000099
:100020000000000000000000000000005124000853
:100030005F240008000000006D2400087D240008F3
:1000400081260008812600088126000881260008F4
:1000500081260008812600088126000881260008E4
:1000600081260008812600088126000881260008D4
:1000700081260008812600088126000881260008C4
:1000800081260008812600088126000881260008B4
:1000900081260008812600088126000881260008A4
:1000A0008126000881260008812600088126000894
:1000B0008126000881260008812600088126000884
:1000C0008126000881260008812600088126000874
:1000D0008126000881260008812600088126000864
:1000E0008126000881260008812600088126000854
:1000F0008126000881260008812600088126000844
:100100008126000881260008812600088126000833
:100110008126000881260008812600088126000823
:100120008126000881260008812600088126000813
:100130008126000881260008812600088126000803
:1001400081260008812600088126000881260008F3
:1001500081260008812600088126000881260008E3
:1001600081260008812600088126000881260008D3
:100170008126000881260008812600080000000072
:08018000812600088126000819
:1001900010B5054C237833B9044B13B10448AFF3C1
:1001A00000800123237010BDEC010020000000003E
:1001B00018AF000808B5034B1BB103490348AFF360
:1001C000008008BD00000000F001002018AF00080A
:1001D00001F0FF01102A2BDB10F0070F08D010F8F8
:1001E000013B013A8B422DD010F0070F42B3F6D1FC
:1001F000F0B441EA012141EA014122F007047FF015
:1002000000070023F0E80256083C85EA010586EA6B
:10021000010685FA47F5A3FA87F586FA47F6A5FAA7
:1002200087F68EB9EED1F0BC01F0FF0102F00702B3
:1002300032B110F8013B013A83EA010313B1F8D15E
:100240000020704701387047002D06BF354603383F
:10025000073815F0010F07D1013015F4807F02BF78
:10026000013015F4C03F0130F0BC0138704700BFC9
:10027000034613F8012B002AFBD1181A01387047E6
:1002800081F0004102E000BF83F0004330B54FEA47
:1002900041044FEA430594EA050F08BF90EA020FB4
:1002A0001FBF54EA000C55EA020C7FEA645C7FEA47
:1002B000655C00F0E2804FEA5454D4EB5555B8BF6A
:1002C0006D420CDD2C4480EA020281EA030382EADB
:1002D000000083EA010180EA020281EA0303362D6D
:1002E00088BF30BD11F0004F4FEA01314FF4801C40
:1002F0004CEA113102D0404261EB410113F0004F52
:100300004FEA03334CEA133302D0524263EB430308
:1003100094EA050F00F0A780A4F10104D5F1200EA6
:100320000DDB02FA0EFC22FA05F2801841F1000101
:1003300003FA0EF2801843FA05F359410EE0A5F1D5
:1003400020050EF1200E012A03FA0EFC28BF4CF006
:10035000020C43FA05F3C01851EBE37101F00045BC
:1003600007D54FF0000EDCF1000C7EEB00006EEBC9
:100370000101B1F5801F1BD3B1F5001F0CD3490853
:100380005FEA30004FEA3C0C04F101044FEA4452AA
:1003900012F5800F80F09A80BCF1004F08BF5FEA31
:1003A000500C50F1000041EB045141EA050130BD11
:1003B0005FEA4C0C404141EB0101013C28BFB1F523
:1003C000801FE9D291F0000F04BF01460020B1FA6E
:1003D00081F308BF2033A3F10B03B3F120020CDA41
:1003E0000C3208DD02F1140CC2F10C0201FA0CF01F
:1003F00021FA02F10CE002F11402D8BFC2F1200C84
:1004000001FA02F120FA0CFCDCBF41EA0C01904039
:10041000E41AA2BF01EB0451294330BD6FEA040482
:100420001F3C1CDA0C340EDC04F11404C4F120026D
:1004300020FA04F001FA02F340EA030021FA04F37F
:1004400045EA030130BDC4F10C04C4F1200220FAD6
:1004500002F001FA04F340EA0300294630BD21FA14
:1004600004F0294630BD94F0000F83F4801306BFDA
:1004700081F480110134013D4EE77FEA645C18BFCE
:100480007FEA655C29D094EA050F08BF90EA020F65
:1004900005D054EA000C04BF1946104630BD91EA5D
:1004A000030F1EBF0021002030BD5FEA545C05D160
:1004B0004000494128BF41F0004130BD14F580049F
:1004C0003CBF01F5801130BD01F0004545F0FE4113
:1004D00041F470014FF0000030BD7FEA645C1ABF48
:1004E000194610467FEA655C1CBF0B46024650EA7F
:1004F000013406BF52EA033591EA030F41F40021AB
:1005000030BD00BF90F0000F04BF0021704730B530
:100510004FF4806404F132044FF000054FF0000105
:1005200050E700BF90F0000F04BF0021704730B5C6
:100530004FF4806404F1320410F0004548BF40429B
:100540004FF000013EE700BF42004FEAE2014FEAF0
:1005500031014FEA02701FBF12F07F4393F07F4FCB
:1005600081F06051704732F07F4208BF704793F0CE
:100570007F4F04BF41F40021704730B54FF46074E1
:1005800001F0004521F000411CE700BF50EA0102E4
:1005900008BF704730B54FF000050AE050EA01028D
:1005A00008BF704730B511F0004502D5404261EBFD
:1005B00041014FF4806404F132045FEA915C3FF43E
:1005C000D8AE4FF003025FEADC0C18BF03325FEADB
:1005D000DC0C18BF033202EBDC02C2F1200300FA8C
:1005E00003FC20FA02F001FA03FE40EA0E0021FAB1
:1005F00002F11444BDE600BF70B54FF0FF0C4CF49F
:10060000E06C1CEA11541DBF1CEA135594EA0C0F50
:1006100095EA0C0F00F0DEF82C4481EA030621EA8B
:100620004C5123EA4C5350EA013518BF52EA0335C6
:1006300041F4801143F4801338D0A0FB02CE4FF078
:100640000005E1FB02E506F00042E0FB03E54FF0A8
:100650000006E1FB03569CF0000F18BF4EF0010EA0
:10066000A4F1FF04B6F5007F64F5407404D25FEA9C
:100670004E0E6D4146EB060642EAC62141EA55514F
:100680004FEAC52040EA5E504FEACE2EB4F1FD0C91
:1006900088BFBCF5E06F1ED8BEF1004F08BF5FEA0F
:1006A000500E50F1000041EB045170BD06F00046C1
:1006B00046EA010140EA020081EA0301B4EB5C046E
:1006C000C2BFD4EB0C0541EA045170BD41F4801166
:1006D0004FF0000E013C00F3AB8014F1360FDEBF8B
:1006E000002001F0004170BDC4F10004203C35DA67
:1006F0000C341BDC04F11404C4F1200500FA05F3EA
:1007000020FA04F001FA05F240EA020001F000428A
:1007100021F0004110EBD37021FA04F642EB060100
:100720005EEA430E08BF20EAD37070BDC4F10C042A
:10073000C4F1200500FA04F320FA05F001FA04F2EE
:1007400040EA020001F0004110EBD37041F10001DA
:100750005EEA430E08BF20EAD37070BDC4F12005E5
:1007600000FA05F24EEA020E20FA04F301FA05F24D
:1007700043EA020321FA04F001F0004121FA04F2F5
:1007800020EA020000EBD3705EEA430E08BF20EAC5
:10079000D37070BD94F0000F0FD101F000464000FF
:1007A00041EB010111F4801F08BF013CF7D041EA81
:1007B000060195F0000F18BF704703F00046520085
:1007C00043EB030313F4801F08BF013DF7D043EA56
:1007D0000603704794EA0C0F0CEA135518BF95EA0C
:1007E0000C0F0CD050EA410618BF52EA4306D1D193
:1007F00081EA030101F000414FF0000070BD50EAB2
:10080000410606BF1046194652EA430619D094EA3B
:100810000C0F02D150EA013613D195EA0C0F05D125
:1008200052EA03361CBF104619460AD181EA030179
:1008300001F0004141F0FE4141F470014FF0000031
:1008400070BD41F0FE4141F4780170BD70B54FF0CC
:10085000FF0C4CF4E06C1CEA11541DBF1CEA13554C
:1008600094EA0C0F95EA0C0F00F0A7F8A4EB05042E
:1008700081EA030E52EA03354FEA013100F0888025
:100880004FEA03334FF0805545EA131343EA1263EE
:100890004FEA022245EA111545EA10654FEA0026A3
:1008A0000EF000419D4208BF964244F1FD0404F55C
:1008B000407402D25B084FEA3202B61A65EB0305B8
:1008C0005B084FEA32024FF480104FF4002CB6EB75
:1008D000020E75EB030E22BFB61A754640EA0C00F5
:1008E0005B084FEA3202B6EB020E75EB030E22BF35
:1008F000B61A754640EA5C005B084FEA3202B6EB76
:10090000020E75EB030E22BFB61A754640EA9C0034
:100910005B084FEA3202B6EB020E75EB030E22BF04
:10092000B61A754640EADC0055EA060E18D04FEAC2
:10093000051545EA16754FEA06164FEAC30343EA62
:1009400052734FEAC2025FEA1C1CC0D111F4801F2F
:100950000BD141EA00014FF000004FF0004CB6E728
:1009600011F4801F04BF01430020B4F1FD0C88BFC7
:10097000BCF5E06F3FF6AFAEB5EB030C04BFB6EBD2
:10098000020C5FEA500C50F1000041EB045170BDC5
:100990000EF0004E4EEA113114EB5C04C2BFD4EBF2
:1009A0000C0541EA045170BD41F480114FF0000E76
:1009B000013C90E645EA060E8DE60CEA135594EAF2
:1009C0000C0F08BF95EA0C0F3FF43BAF94EA0C0FF5
:1009D0000AD150EA01347FF434AF95EA0C0F7FF46A
:1009E00025AF104619462CE795EA0C0F06D152EABE
:1009F00003353FF4FDAE1046194622E750EA4106A2
:100A000018BF52EA43067FF4C5AE50EA41047FF4B2
:100A10000DAF52EA43057FF4EBAE12E74FF0FF3C17
:100A200006E000BF4FF0010C02E000BF4FF0010CE8
:100A30004DF804CD4FEA410C7FEA6C5C4FEA430C61
:100A400018BF7FEA6C5C1BD001B050EA410C0CBFB0
:100A500052EA430C91EA030F02BF90EA020F002012
:100A6000704710F1000F91EA030F58BF994208BF79
:100A700090422CBFD8176FEAE37040F00100704736
:100A80004FEA410C7FEA6C5C02D150EA013C07D18D
:100A90004FEA430C7FEA6C5CD6D152EA033CD3D0D8
:100AA0005DF8040B704700BF8446104662468C46D2
:100AB0001946634600E000BF01B5FFF7B7FF002805
:100AC00048BF10F1000F01BD4DF808EDFFF7F4FF2E
:100AD0000CBF012000205DF808FB00BF4DF808EDB9
:100AE000FFF7EAFF34BF012000205DF808FB00BFDC
:100AF0004DF808EDFFF7E0FF94BF012000205DF8FE
:100B000008FB00BF4DF808EDFFF7CEFF94BF0120B2
:100B100000205DF808FB00BF4DF808EDFFF7C4FFAB
:100B200034BF012000205DF808FB00BF4FEA410CF4
:100B30007FEA6C5C02D150EA013C0AD14FEA430CD7
:100B40007FEA6C5C02D152EA033C02D14FF0000014
:100B500070474FF0010070474FEA410212F5001252
:100B600015D211D56FF47873B3EB625212D94FEAF4
:100B7000C12343F0004343EA505311F0004F23FADE
:100B800002F018BF404270474FF00000704750EA33
:100B9000013005D111F0004008BF6FF000407047F0
:100BA0004FF00000704700BF53B94AB9002908BF91
:100BB00000281CBF4FF0FF314FF0FF3000F06AB942
:100BC000ADF1080C6DE904CE00F006F8DDF804E0A4
:100BD000DDE9022304B070472DE9F047089D0C467B
:100BE000002B4ED194468C458646B2FA82F262D9E9
:100BF0004AB1C2F12003914020FA03F30CFA02FC3F
:100C0000194300FA02FE4FEA1C471FFA8CF6B1FBAB
:100C1000F7F44FEA1E4307FB141143EA014304FBB8
:100C200006F199420AD91CEB030304F1FF3080F06E
:100C30001281994240F20F81023C6344591A1FFA13
:100C40008EF3B1FBF7F007FB101143EA014300FB01
:100C500006F69E420AD91CEB030300F1FF3180F037
:100C6000FC809E4240F2F980634402389B1B40EABC
:100C7000044000211DB1D3400022C5E90032BDE887
:100C8000F0878B4205D90DB1C5E900010021084666
:100C9000F5E7B3FA83F1002946D1A34202D390428B
:100CA000C0F0F080861A64EB03030120002DE6D02B
:100CB000C5E90063E3E7002A40F09080A1EB0C0453
:100CC0004FEA1C481FFA8CF70121B4FBF8F64FEAF3
:100CD0001E4308FB164443EA044307FB06F0984210
:100CE00008D91CEB030306F1FF3402D2984200F24C
:100CF000CD8026461C1A1FFA8EF3B4FBF8F008FBD1
:100D0000104443EA044300FB07F79F4208D91CEB59
:100D1000030300F1FF3402D29F4200F2B08020466C
:100D2000DB1B40EA0640A5E7C1F120068B4022FA12
:100D300006F71F4320FA06FC04FA01F343EA0C030A
:100D4000F44000FA01F8380C4FEA1349B4FBF0FE06
:100D50001FFA87FC00FB1E4449EA04440EFB0CF911
:100D6000A14502FA01F20AD93C190EF1FF3A80F0CE
:100D70008480A14540F28180AEF1020E3C44A4EB98
:100D800009041FFA83F9B4FBF0F300FB134449EAAA
:100D9000044403FB0CFCA44507D93C1903F1FF30C4
:100DA00067D2A44565D9023B3C4443EA0E40A0FB10
:100DB0000293A4EB0C049C42CE469C4651D34ED0E9
:100DC00055B1B8EB0E0364EB0C0404FA06F6CB4005
:100DD0001E43CC40C5E90064002150E7C2F1200366
:100DE00020FA03F10CFA02FC24FA03F394400C43BA
:100DF0004FEA1C4800FA02FE1FFA8CF7B3FBF8F02A
:100E000008FB1031230C43EA014300FB07F1994230
:100E100008D91CEB030300F1FF362CD299422AD9E2
:100E2000023863445B1AA4B2B3FBF8F108FB113338
:100E300044EA034401FB07F3A34208D91CEB040472
:100E400001F1FF3613D2A34211D902396444E41AE6
:100E500041EA004139E70446F0E6084606E7C8459E
:100E6000AED2B9EB020E63EB070C0138A8E73146AE
:100E7000EDE7034699E73046D4E7D6467FE763447B
:100E800002384DE70646234608460FE7023E634414
:100E900030E700BF704700BF80B500AF00221021CF
:100EA000024802F01DF900BF80BD00BF00000240F3
:100EB00080B500AF01221021024802F011F900BFF5
:100EC00080BD00BF0000024080B582B000AF034685
:100ED000FB7100BF084B1B689B6803F00203022BE9
:100EE000F8D1F91D64230122034802F0CEFE00BFB1
:100EF0000837BD4680BD00BF5412002080B582B0C7
:100F000000AF78600B467B8000BF084B1B689B6876
:100F100003F00203022BF8D17A886423796803482E
:100F200002F0B3FE00BF0837BD4680BD541200205A
:100F300080B584B002AFFF23FB7100BF094B1B6873
:100F40009B6803F00203022BF8D1BA1DF91D64233C
:100F500000930123034802F0DCFFBB7918460837F1
:100F6000BD4680BD5412002080B582B000AF7860CD
:100F7000FFF7DEFF03461A467B681A7000BF08378A
:100F8000BD4680BD80B582B000AF0A4B4FF4FA7207
:100F90001A80FFF7CDFF0346FB71FB79FF2B03D0CF
:100FA000044B1B88002BF4D1FB7918460837BD464B
:100FB00080BD00BF0A02002080B584B000AF41F6BA
:100FC000FF73FB60FFF774FF0023BB6005E0FF20A9
:100FD000FFF77AFFBB680133BB60BB68092BF6DD06
:100FE000FFF75AFF40233B7000237B700023BB7048
:100FF0000023FB7000233B7195237B713B46062148
:101000001846FFF77BFF02E0FB68013BFB60FFF740
:101010008FFF0346012B02D0FB68002BF4D1FFF7B2
:1010200047FFFF20FFF750FF034B01221A7000BF5C
:101030001037BD4680BD00BF0D02002080B400AF58
:10104000034B00221A7000BFBD465DF8047B704759
:101050000D02002080B400AF034B1B781846BD463C
:101060005DF8047B704700BF0D02002080B584B09E
:1010700000AF78603960134BC8221A80FFF758FF21
:101080000346FB73FB7BFF2B03D10E4B1B88002B0E
:10109000F4D1FB7BFE2B01D000230FE07B685A1CB0
:1010A0007A601846FFF760FF3B685A1E3A60002BD3
:1010B000F4D1FFF73DFFFFF73BFF01231846103740
:1010C000BD4680BD0802002080B584B000AF7860C6
:1010D0000B46FB700023BB73FFF754FF0346FF2B47
:1010E00001D000232FE0FB781846FFF7EDFEFB78D8
:1010F000FD2B20D04FF400717868FFF7FFFEFFF75B
:1011000017FFFFF715FF0BE0FFF712FF0346FB7316
:10111000FB7B03F01F03052B06D0BB7B0133BB73A6
:10112000BB7B402BF0D900E000BF00BFFFF700FF02
:101130000346002BFAD0FB7B03F01F03052B01D1E4
:10114000012300E0002318461037BD4680BD80B55E
:1011500084B000AF03463960FB71FFF713FF03460D
:10116000FF2B01D0FF2342E0FB791846FFF7ACFECE
:101170003B681B0EDBB21846FFF7A6FE3B681B0C54
:10118000DBB21846FFF7A0FE3B681B0ADBB218462D
:10119000FFF79AFE3B68DBB21846FFF795FEFB7936
:1011A000402B02D19523FB7307E0FB79482B02D13A
:1011B0008723FB7301E00123FB73FB7B1846FFF7DA
:1011C00083FEFB794C2B01D1FFF7B2FE0A23BB73E0
:1011D000FFF7AEFE03467B7397F90D30002B05DA5F
:1011E000BB7B013BBB73BB7B002BF1D17B7B1846E8
:1011F0001037BD4680BD000090B585B000AF0346F6
:10120000FB71FB79002B01D00123D1E06A4B1B78E5
:10121000DBB203F00203002B03D0674B1B78DBB279
:10122000C6E0FFF7C9FEFFF737FE0023BB730021BE
:101230004020FFF78CFF0346012B40F0A1805F4B5D
:101240004FF47A721A804FF4D5714820FFF77FFF70
:101250000346012B55D10023FB730CE0FC7BFFF709
:1012600067FE03461A4604F110033B4403F8082CBA
:10127000FB7B0133FB73FB7B032BEFD9BB7A012B89
:101280007ED1FB7AAA2B7BD100217720FFF75FFF6D
:101290000346012B07D84FF080416920FFF757FF25
:1012A0000346002B04D0454B1B88002BECD100E0FB
:1012B00000BF424B1B88002B62D000217A20FFF731
:1012C00046FF0346002B5BD10023FB730CE0FC7B45
:1012D000FFF72EFE03461A4604F110033B4403F8C1
:1012E000082CFB7B0133FB73FB7B032BEFD93B7A91
:1012F00003F04003002B01D00C2300E00423BB7358
:101300003EE000217720FFF722FF0346012B08D89B
:1013100000216920FFF71BFF0346012B01D80223A0
:1013200000E00123BB73BB7B022B0ED10021772091
:10133000FFF70DFF0346012B0ED800216920FFF7B0
:1013400006FF0346002B07D10CE000214120FFF7E8
:10135000FEFE0346002B04D0184B1B88002BE2D165
:1013600000E000BF154B1B88002B07D04FF4007125
:101370005020FFF7ECFE0346002B01D00023BB7387
:101380000F4ABB7B1370FFF793FDFFF7D1FDBB7BCB
:10139000002B08D0084B1B78DBB223F00103DAB234
:1013A000054B1A7001E0FFF749FE034B1B78DBB2D7
:1013B00018461437BD4690BD0000002008020020EA
:1013C0000C02002080B483B000AF0346FB71FB79B0
:1013D000002B01D0012302E0044B1B78DBB218463E
:1013E0000C37BD465DF8047B704700BF000000204D
:1013F00080B584B000AFB9607A603B600346FB7390
:10140000FB7B002B02D13B68002B01D1042351E070
:101410002A4B1B78DBB203F00103002B01D003231E
:1014200048E0274B1B7803F00403002B02D17B68B4
:101430005B027B60FFF730FD3B68012B11D17968BF
:101440005120FFF784FE0346002B29D14FF4007191
:10145000B868FFF70BFE0346002B21D000233B604A
:101460001EE079685220FFF772FE0346002B17D169
:101470004FF40071B868FFF7F9FD0346002B0AD05E
:10148000BB6803F50073BB603B68013B3B603B6896
:10149000002BEDD100E000BF00214C20FFF757FEEC
:1014A000FFF706FDFFF744FD3B68002B14BF012347
:1014B0000023DBB218461037BD4680BD0000002077
:1014C0000C02002080B584B000AFB9607A603B6048
:1014D0000346FB73FB7B002B02D13B68002B01D141
:1014E00004236BE0374B1B78DBB203F00103002BC6
:1014F00001D0032362E0334B1B78DBB203F004031B
:10150000002B01D0022359E02F4B1B7803F004037A
:10151000002B02D17B685B027B60FFF7BDFC3B6860
:10152000012B10D179685820FFF711FE0346002BDC
:101530003AD1FE21B868FFF7C7FD0346002B33D030
:1015400000233B6030E0204B1B7803F00203002BAC
:1015500007D000217720FFF7FAFD39685720FFF701
:10156000F6FD79685920FFF7F2FD0346002B1BD1E9
:10157000FC21B868FFF7A8FD0346002B0AD0BB6822
:1015800003F50073BB603B68013B3B603B68002B8D
:10159000EED100E000BFFD210020FFF795FD0346DE
:1015A000002B01D101233B60FFF782FCFFF7C0FC59
:1015B0003B68002B14BF01230023DBB21846103711
:1015C000BD4680BD000000200C02002090B58BB00D
:1015D00000AF03463A60FB710B46BB713B683B6250
:1015E000FB79002B01D0042313E1012387F8273076
:1015F000BB79052B24D13B6A1B78022B12D0022B1E
:101600001ADC002B02D0012B06D015E0FFF716FDE7
:10161000002387F82730FAE0FFF7CEFC002387F895
:101620002730F4E03B6A5C1CFFF714FD034623708F
:10163000002387F82730EAE0042387F82730E6E024
:10164000764B1B78DBB203F00103002B01D00323A0
:10165000DFE0FFF721FCBB790D2B00F2C98001A26E
:1016600052F823F05B1700089D1600084B1700087E
:10167000F1170008F1170008F1170008F11700082A
:10168000F1170008F1170008F1170008F11700081A
:101690006D17000891170008B517000800214920B0
:1016A000FFF755FD0346002B40F0A68007F10C0321
:1016B00010211846FFF7DAFC0346002B00F09C804F
:1016C0003B7B9B09DBB2012B0DD17B7D1A463B7D19
:1016D0001B029BB213449BB20133FB83FB8B9A0228
:1016E0003B681A602DE07B7C03F00F03DAB2BB7D10
:1016F000DB09DBB21344DAB27B7D5B00DBB203F0C3
:101700000603DBB21344DBB2023387F826303B7D9D
:101710009B09DBB21A46FB7C9B009BB213449AB236
:10172000BB7C9B029BB203F440639BB213449BB20D
:101730000133FB83FA8B97F82630093B9A403B68CC
:101740001A60002387F8273056E03B684FF4007298
:101750001A80002387F8273055E0FFF713FC034673
:10176000FF2B4BD1002387F8273047E00021492089
:10177000FFF7EDFC0346002B42D11021386AFFF73A
:1017800075FC0346002B3BD0002387F8273037E059
:1017900000214A20FFF7DBFC0346002B32D1102149
:1017A000386AFFF763FC0346002B2BD0002387F831
:1017B000273027E000217A20FFF7C9FC0346002BE1
:1017C00016D1002387F826300BE03C6A631C3B628D
:1017D000FFF7AEFB0346237097F82630013387F8F6
:1017E000263097F82630032BEFD9002387F82730CF
:1017F000042387F8273006E000BF04E000BF02E0C2
:1018000000BF00E000BFFFF753FBFFF791FB97F825
:10181000273018462C37BD4690BD00BF0000002081
:1018200080B58AB000AF786039607B681B783A2B4E
:1018300002D04FF0FF338FE0786800F095F8034650
:10184000002B02D16FF0010386E00023FB617B686F
:10185000013307F11C024249184606F073FD0023CC
:101860007B837B68033307F11A023E49184606F072
:1018700069FD00237B617B68073307F11402384957
:10188000184606F05FFD7B69052B63D801A252F86C
:1018900023F000BFAD180008011900085519000811
:1018A0005519000805190008511900087B8B1A46C4
:1018B0003B681A60FB691A463B68C3F804210023A1
:1018C0007B6217E000233B617B6A5B0009337A6827
:1018D000134407F110022249184606F033FD3B6914
:1018E000D9B23A687B6A134404330A461A707B6A99
:1018F00001337B62FB697A6A9A42E3DB00232BE0C7
:10190000012329E0FB691A463B68C3F80421002340
:101910003B6217E00023FB603B6A5B0009337A6897
:10192000134407F10C020E49184606F00BFDFB6844
:10193000D9B23A683B6A134404330A461A703B6AC8
:1019400001333B62FB693A6A9A42E3DB022303E01C
:10195000032301E06FF0020318462837BD4680BD1F
:1019600030AF000834AF000880B586B000AF7860B3
:101970007868FEF77DFC0346FB600023FB750123BE
:101980003B6112E00023BB603B697A68134407F1B6
:1019900008020D49184606F0D5FCBB68DAB2FB7D9B
:1019A0001344FB753B6902333B61FB68023B3A69B8
:1019B0009A42E7DBFB7D002B0CBF01230023DBB247
:1019C00018461837BD4680BD30AF000880B500AF5F
:1019D00001F028F8044B1B780221184601F084F925
:1019E00001F042F800BF80BD1402002080B483B033
:1019F00000AF03463960FB71054AFB791370054A55
:101A00003B68136000BF0C37BD465DF8047B704730
:101A100014020020100200202DE9B04F88B000AF62
:101A2000F860B9607A60FB70364B1B68FA68134443
:101A3000FB6100F0F7FFFB78022B3FD0022B59DC53
:101A4000002B02D0012B1CD054E00023BB6113E01B
:101A5000BA68BB6913441B78DBB200229A469346EE
:101A600052465B46F969002000F088FFFB690133AC
:101A7000FB61BB690133BB61BA697B689A42E7D3FA
:101A800038E000237B6114E07B695B00BA68134493
:101A90001B889BB200229846914642464B46F96904
:101AA000012000F06BFFFB690233FB617B690133AE
:101AB0007B617A697B689A42E6D31BE000233B6135
:101AC00013E03B699B00BA6813441B6800221C4664
:101AD000154622462B46F969022000F04FFFFB69AC
:101AE0000433FB613B6901333B613A697B689A428D
:101AF000E7D300BF00F0B8FF00BF2037BD46BDE808
:101B0000B08F00BF1002002080B5ADF5307D00AF72
:101B1000AA4800F0BDF903461A46A94B1A70A84B13
:101B20001B78002B03D0A74806F0E4FB02E0A64890
:101B300006F0E0FB0123A7F8BE320023C7F8B83255
:101B4000022387F8B7320023C7F8B0320023C7F862
:101B5000A432002387F8AF32B7F8BE3207F5EA7136
:101B6000C822184600F0B0F9B7F8BE3219469748B7
:101B700006F050FB3A1D07F5EA7311461846FFF7C9
:101B80004FFE034687F8A33297F9A332002B7CD18E
:101B900007F53073A3F52F73D3F804213B1D0433ED
:101BA00019468B4800F056FA07F53073A3F52F73EA
:101BB0001B681946874806F02DFB07F53073A3F51F
:101BC0002F731B68D7F8B8221343C7F89C32D7F895
:101BD0009C12814806F01EFB97F8AF32002B3AD0DA
:101BE000D7F89C327D4A934202D1022387F8B7325C
:101BF000D7F89C327A4A934202D1032387F8B7324E
:101C0000D7F89C32774A934202D1042387F8B7323F
:101C1000D7F89C32744A934202D1052387F8B73231
:101C200097F8B7321946714806F0F4FAD7F89C32A3
:101C3000C7F8B032D7F8B012674806F0EBFA97F859
:101C4000B732D7F8B0121846FFF7D0FEFFF7BEFE46
:101C5000002387F8AF32D7F89C22D7F8B032D31AD6
:101C6000C7F8A432D7F8A412614806F0D3FA07F5F2
:101C70003073A3F52F73D3F804213B1D191D0023E6
:101C8000D7F8A402FFF7C8FE86E097F9A332022B2B
:101C900034D10023C7F8A83218E007F53073A3F554
:101CA0002F72D7F8A832134404331B781A46D7F89A
:101CB000B8321343C7F8B832D7F8B8321B02C7F8A6
:101CC000B832D7F8A8320133C7F8A83207F5307315
:101CD000A3F52F73D3F80421D7F8A8329A42DCD8A1
:101CE000D7F8B8321B02C7F8B832012387F8AF32F1
:101CF000D7F8B8123F4806F08DFA4DE097F9A332B5
:101D0000012B0ED13C4806F0F5FA00BF00F0D0F8E8
:101D100003461A462A4B1A70294B1B78002B45D0D4
:101D200040E097F9A332B3F1FF3F0ED1B7F8BE22DE
:101D300097F9A33207F58670304906F0E3FA07F504
:101D40008673184606F066FA26E097F9A33213F177
:101D5000020F0ED1B7F8BE2297F9A33207F58670AD
:101D6000264906F0CFFA07F58673184606F052FAB0
:101D700012E097F9A33213F1030F0DD1B7F8BE2289
:101D800097F9A33207F586701C4906F0BBFA07F5F0
:101D90008673184606F03EFAB7F8BE320133A7F84C
:101DA000BE32D9E6164806F0A5FA02E0154806F05C
:101DB000A1FA00BF07F53077BD4680BD18020020AC
:101DC000501200203CAF00085CAF00087CAF000858
:101DD0008CAF000894AF0008ACAF0008008000088A
:101DE00000C000080000010800000208BCAF0008A5
:101DF000D4AF0008ECAF000804B000081CB0000825
:101E000050B0000874B0000880B586B000AF72B65C
:101E100000BF1A4B00221A6001F0E0FD0023FB75A1
:101E200010E0174AFB7D20334FF0FF3142F82310BA
:101E3000134AFB7D60334FF0FF3142F82310FB7DE6
:101E40000133FB75FB7D032BEBD962B600BF0D4B55
:101E50001B683B613B697B607B6883F3088800BF3C
:101E6000094B084A9A60094B1B68FB60FB68BB6022
:101E7000BB68984700BF1837BD4680BD10E000E042
:101E800000E100E000C0000800ED00E004C0000830
:101E900080B582B000AF786001220449786804F010
:101EA00005FD034618460837BD4680BD98B00008BA
:101EB00080B500AF00220349002004F0F7FC034680
:101EC000184680BD98B0000880B5ADF5825D82B03F
:101ED00000AF07F1480343F83C0C07F1480343F80F
:101EE000401C07F1480343F8442C07F1480353F81A
:101EF0003C3C002B01D100235DE0002307F582521A
:101F000002F10402136007F12803183B01222D4956
:101F1000184604F011FD034607F5825202F1030250
:101F2000137007F12803183B0021184605F0D3F879
:101F300007F5825303F103031B78002B22D02248BC
:101F400006F0D8F9002336E007F5825303F10403C5
:101F50001B68013307F5825202F10402136007F196
:101F6000480307F5825202F10402126853F83C3C20
:101F70009A4207D107F12803183B184605F081F86B
:101F8000012318E007F1480353F8441C07F1280324
:101F9000183B07F1480210461A4650F8400C05F06D
:101FA000BEFA0346002BCFD107F12803183B184691
:101FB00005F067F80023184607F582570837BD4635
:101FC00080BD00BF9CB00008E8B0000880B483B0BA
:101FD00000AF78604FF06043D3F8803E03F0010318
:101FE000002B13D04FF06043D3F8003E03F0010301
:101FF000002B0BD000E000BF4FF060431B68002BAC
:10200000F9D04FF060437A68D2B21A707B681846F4
:102010000C37BD465DF8047B704780B586B000AFD5
:10202000F860B9607A6000237B6109E0BB685A1CE4
:10203000BA601B781846FFF7C9FF7B6901337B61E3
:102040007A697B689A42F1DB7B6818461837BD468F
:1020500080BD000080B586B000AFF860B9607A60DE
:10206000F9680E4806F0D6F800237B610AE0BA68EA
:102070007B6913441B781946094806F0CBF87B6945
:1020800001337B617A697B689A42F0D30A2006F0BB
:10209000D3F800BF1837BD4680BD00BF24B100088B
:1020A0002CB1000880B500AF00F0ECFA00F024F885
:1020B00000F0C2F800F08AF802F0B0F90B4806F020
:1020C00019F94FF47A7000F04FFB0121084800F035
:1020D000EFFF0346002B01D0FFF716FD054806F081
:1020E00009F9FFF791FE00BFFDE700BF34B100081A
:1020F0000000024044B1000880B594B000AF07F181
:10210000200330220021184606F020FA07F10C03C4
:1021100000221A605A609A60DA601A610023BB607C
:10212000284B1B6C274A43F080531364254B1B6CD0
:1021300003F08053BB60BB6800237B60224B1B68AD
:10214000214A43F4804313601F4B1B6803F4804310
:102150007B607B6801233B624FF480337B62022308
:10216000BB634FF48003FB6308233B644FF4A87305
:102170007B640223BB640723FB6407F1200318463A
:1021800000F0C8FF0346002B01D000F0D7F80F2362
:10219000FB6002233B6100237B614FF4A053BB61D2
:1021A0004FF48053FB6107F10C030521184601F041
:1021B00029FA0346002B01D000F0C0F800BF5037C9
:1021C000BD4680BD003802400070004080B500AFC1
:1021D000174B184A1A60164B4FF482725A60144B10
:1021E00000229A60124B0022DA60114B00221A6121
:1021F0000F4B00225A610E4B4FF400729A610C4B48
:102200002022DA610A4B00221A62094B00225A622C
:10221000074B00229A62064B0A22DA62044801F058
:10222000ABFC0346002B01D000F088F800BF80BD56
:10223000541200200030014080B58AB000AF07F191
:10224000140300221A605A609A60DA601A6100234F
:102250003B61374B1B6B364A43F080031363344BAF
:102260001B6B03F080033B613B690023FB60304B39
:102270001B6B2F4A43F0010313632D4B1B6B03F0C1
:102280000103FB60FB680023BB60294B1B6B284AE2
:1022900043F008031363264B1B6B03F00803BB607A
:1022A000BB6800237B60224B1B6B214A43F0020377
:1022B00013631F4B1B6B03F002037B607B680022E0
:1022C00010211C4800F00CFF00224FF400411A4876
:1022D00000F006FF01237B610023BB610023FB614B
:1022E00007F114031946134800F046FD10237B61E3
:1022F0000123BB610023FB6100233B6207F1140350
:1023000019460C4800F038FD4FF400437B6101236F
:10231000BB610023FB6100233B6207F114031946F4
:10232000054800F029FD00BF2837BD4680BD00BF2D
:102330000038024000000240000C024080B400AFB0
:1023400072B600BF00BFFDE780B582B000AF0023CA
:102350007B60104B5B6C0F4A43F4804353640D4B1E
:102360005B6C03F480437B607B6800233B60094B1C
:102370001B6C084A43F080531364064B1B6C03F03C
:1023800080533B603B68072000F0C4FA00BF083769
:10239000BD4680BD0038024080B58AB000AF78608D
:1023A00007F1140300221A605A609A60DA601A6119
:1023B0007B681B68194A93422BD100233B61184B61
:1023C0005B6C174A43F480535364154B5B6C03F406
:1023D00080533B613B690023FB60114B1B6B104A30
:1023E00043F0010313630E4B1B6B03F00103FB600F
:1023F000FB68E0237B610223BB610023FB610323B5
:102400003B6205237B6207F114031946054800F07F
:10241000B3FC00BF2837BD4680BD00BF003001407F
:10242000003802400000024080B400AF00BFFDE76A
:1024300080B400AF00BFFDE780B400AF00BFFDE790
:1024400080B400AF00BFFDE780B400AF00BFFDE780
:1024500080B400AF00BFBD465DF8047B704780B418
:1024600000AF00BFBD465DF8047B704780B400AF8D
:1024700000BFBD465DF8047B7047000080B500AF2B
:102480000B4B1B88002B05D0094B1B88013B9AB2D4
:10249000074B1A80074B1B88002B05D0054B1B8868
:1024A000013B9AB2034B1A8000F03EF900BF80BD99
:1024B000080200200A02002080B400AF0123184661
:1024C000BD465DF8047B704780B582B000AF786090
:1024D000396006F08DF8034616221A604FF0FF337C
:1024E00018460837BD4680BD80B582B000AF786021
:1024F0004FF0FF317868FFF7E7FF00BFFDE780B5D9
:1025000086B000AFF860B9607A6000237B610AE0B2
:10251000AFF300800146BB685A1CBA60CAB21A7099
:102520007B6901337B617A697B689A42F0DB7B6867
:1025300018461837BD4680BD80B483B000AF7860C0
:102540004FF0FF3318460C37BD465DF8047B7047EB
:1025500080B483B000AF786039603B684FF40052BC
:102560005A60002318460C37BD465DF8047B70475F
:1025700080B483B000AF7860012318460C37BD46A5
:102580005DF8047B704780B485B000AFF860B96037
:102590007A60002318461437BD465DF8047B704707
:1025A00080B586B000AF7860144A154BD31A7B61B2
:1025B0007B693B61134B1B68002B02D1114B124A04
:1025C0001A60104B1A687B6813443A699A4207D222
:1025D00006F00EF803460C221A604FF0FF3309E0B4
:1025E000084B1B68FB60074B1A687B681344054A5D
:1025F0001360FB6818461837BD4680BD00000220F6
:1026000000040000AC1200206016002080B400AF6F
:10261000064BD3F88830054A43F47003C2F888307B
:1026200000BFBD465DF8047B704700BF00ED00E0D1
:10263000DFF834D0FFF7EAFF0C480D490D4A0023BC
:1026400002E0D458C4500433C4188C42F9D30A4A67
:102650000A4C002301E013600432A242FBD305F0D0
:10266000CDFFFFF71FFD7047000002200000002093
:10267000EC01002094B90008EC0100205C16002059
:10268000FEE7000080B500AF0E4B1B680D4A43F417
:10269000007313600B4B1B680A4A43F4806313609A
:1026A000084B1B68074A43F480731360032000F053
:1026B00031F9002000F008F8FFF746FE0023184625
:1026C00080BD00BF003C024080B582B000AF7860A2
:1026D000124B1A68124B1B7819464FF47A73B3FBEE
:1026E000F1F3B2FBF3F3184600F03BF90346002B7D
:1026F00001D001230EE07B680F2B0AD800227968F5
:102700004FF0FF3000F011F9064A7B681360002398
:1027100000E0012318460837BD4680BD04000020B4
:102720000C0000200800002080B400AF064B1B788E
:102730001A46064B1B681344044A136000BFBD468B
:102740005DF8047B704700BF0C000020B012002031
:1027500080B400AF034B1B681846BD465DF8047B90
:10276000704700BFB012002080B584B000AF786021
:10277000FFF7EEFFB8607B68FB60FB68B3F1FF3FDB
:1027800005D00A4B1B781A46FB681344FB6000BF58
:10279000FFF7DEFF0246BB68D31AFA689A42F7D801
:1027A00000BF00BF1037BD4680BD00BF0C00002039
:1027B00080B485B000AF78607B6803F00703FB60EE
:1027C0000C4BDB68BB60BA684FF6FF031340BB607D
:1027D000FB681A02BB68134343F0BF6343F4003342
:1027E000BB60044ABB68D36000BF1437BD465DF8C8
:1027F000047B704700ED00E080B400AF044BDB6861
:102800001B0A03F007031846BD465DF8047B7047BA
:1028100000ED00E080B483B000AF03463960FB7187
:1028200097F90730002B0ADB3B68DAB20C4997F9BD
:1028300007301201D2B20B4483F800230AE03B6850
:10284000DAB20849FB7903F00F03043B1201D2B25C
:102850000B441A7600BF0C37BD465DF8047B704709
:1028600000E100E000ED00E080B489B000AFF86066
:10287000B9607A60FB6803F00703FB61FB69C3F191
:102880000703042B28BF0423BB61FB690433062B19
:1028900002D9FB69033B00E000237B614FF0FF326C
:1028A000BB6902FA03F3DA43BB681A407B699A40BA
:1028B0004FF0FF317B6901FA03F3D9437B680B408A
:1028C000134318462437BD465DF8047B704700006B
:1028D00080B582B000AF78607B68013BB3F1807F48
:1028E00001D301230FE00A4A7B68013B53600F21AB
:1028F0004FF0FF30FFF78EFF054B00229A60044B2C
:1029000007221A60002318460837BD4680BD00BF65
:1029100010E000E080B582B000AF78607868FFF723
:1029200047FF00BF0837BD4680BD80B586B000AF09
:102930000346B9607A60FB7300237B61FFF75CFF9D
:1029400078617A68B9687869FFF78EFF024697F96F
:102950000F3011461846FFF75DFF00BF1837BD4620
:1029600080BD80B582B000AF78607868FFF7B0FFB7
:10297000034618460837BD4680BD000080B586B0C6
:1029800000AFF860B960C7E900230123FB75234B52
:102990001B7E012B01D102233BE0204B01221A7642
:1029A0004CF2503000F070F80346FB75FB7D002BB5
:1029B0002BD1FB68002B05D13B781946B86800F095
:1029C0001BF916E0FB68012B05D13B881946B86856
:1029D00000F0EEF80DE0FB68022B05D13B681946CC
:1029E000B86800F0C3F804E0D7E90023B86800F045
:1029F0008BF84CF2503000F047F80346FB75084B5B
:102A00001B69074A23F001031361044B00221A7665
:102A1000FB7D18461837BD4680BD00BFB4120020AC
:102A2000003C024080B483B000AF0023FB710B4B2D
:102A30001B69002B0BDA094B094A5A60074B094AFC
:102A40005A60064B1B69002B01DA0123FB71FB79ED
:102A500018460C37BD465DF8047B7047003C0240C9
:102A600023016745AB89EFCD80B400AF054B1B69EF
:102A7000044A43F00043136100231846BD465DF845
:102A8000047B7047003C024080B584B000AF7860A2
:102A90000023FB601A4B0022DA61FFF759FEF86051
:102AA00010E07B68B3F1FF3F0CD07B68002B07D0B0
:102AB000FFF74EFE0246FB68D31A7A689A4201D2AB
:102AC000032319E00F4BDB6803F48033002BE8D1BC
:102AD0000C4BDB6803F00103002B02D0094B0122F1
:102AE000DA60084BDB6803F0F203002B03D000F040
:102AF000A5F8012300E0002318461037BD4680BD2D
:102B0000B4120020003C024080B485B000AFF860F1
:102B1000C7E90023144B1B69134A23F44073136164
:102B2000114B1B69104A43F4407313610E4B1B6930
:102B30000D4A43F001031361FB683A681A60BFF362
:102B40006F8F00BFD7E900014FF000024FF0000384
:102B50000A000023F968043113460B6000BF1437E4
:102B6000BD465DF8047B7047003C024080B483B0F2
:102B700000AF786039600D4B1B690C4A23F4407339
:102B800013610A4B1B69094A43F400731361074B35
:102B90001B69064A43F0010313617B683A681A60B7
:102BA00000BF0C37BD465DF8047B7047003C024017
:102BB00080B483B000AF78600B467B800D4B1B69FF
:102BC0000C4A23F4407313610A4B1B69094A43F40E
:102BD00080731361074B1B69064A43F001031361BD
:102BE0007B687A881A8000BF0C37BD465DF8047B8D
:102BF000704700BF003C024080B483B000AF7860F3
:102C00000B46FB700C4B1B690B4A23F4407313619A
:102C1000094B094A1B691361074B1B69064A43F0BC
:102C2000010313617B68FA781A7000BF0C37BD4648
:102C30005DF8047B704700BF003C024080B400AFE9
:102C4000274BDB6803F01003002B08D0254BDB6912
:102C500043F01003234AD361214B1022DA60204B4A
:102C6000DB6803F02003002B08D01E4BDB6943F028
:102C700008031C4AD3611A4B2022DA60184BDB6828
:102C800003F04003002B08D0164BDB6943F004032C
:102C9000144AD361124B4022DA60114BDB6803F017
:102CA0008003002B08D00F4BDB6943F002030D4A71
:102CB000D3610B4B8022DA60094BDB6803F002031F
:102CC000002B08D0074BDB6943F02003054AD36192
:102CD000034B0222DA6000BFBD465DF8047B7047FB
:102CE000003C0240B412002080B485B000AF786090
:102CF0000B46FB700023FB60FB78002B02D1002306
:102D0000FB6010E0FB78012B03D14FF48073FB6074
:102D100009E0FB78022B03D14FF40073FB6002E063
:102D20004FF44073FB60134B1B69124A23F440734A
:102D30001361104B1A690F49FB6813430B610D4B6C
:102D40001B690C4A23F0F80313610A4B1A697B686C
:102D5000DB001343074A43F002031361054B1B6971
:102D6000044A43F48033136100BF1437BD465DF855
:102D7000047B7047003C024080B489B000AF7860AB
:102D8000396000237B6100233B610023BB6100238A
:102D9000FB616BE10122FB6902FA03F37B613B6893
:102DA0001B687A6913403B613A697B699A4240F03B
:102DB0005A813B685B6803F00303012B05D03B6835
:102DC0005B6803F00303022B30D17B689B68BB6117
:102DD000FB695B00032202FA03F3DB43BA69134089
:102DE000BB613B68DA68FB695B0002FA03F3BA690E
:102DF0001343BB617B68BA699A607B685B68BB619F
:102E00000122FB6902FA03F3DB43BA691340BB6199
:102E10003B685B681B0903F00102FB6902FA03F3DC
:102E2000BA691343BB617B68BA695A603B685B68E7
:102E300003F00303032B17D07B68DB68BB61FB69DE
:102E40005B00032202FA03F3DB43BA691340BB6160
:102E50003B689A68FB695B0002FA03F3BA691343A3
:102E6000BB617B68BA69DA603B685B6803F00303A7
:102E7000022B23D1FB69DA087B68083253F8223031
:102E8000BB61FB6903F007039B000F2202FA03F307
:102E9000DB43BA691340BB613B681A69FB6903F005
:102EA00007039B0002FA03F3BA691343BB61FB6992
:102EB000DA087B680832B96943F822107B681B681E
:102EC000BB61FB695B00032202FA03F3DB43BA69CF
:102ED0001340BB613B685B6803F00302FB695B0066
:102EE00002FA03F3BA691343BB617B68BA691A60DB
:102EF0003B685B6803F44033002B00F0B480002390
:102F0000FB60604B5B6C5F4A43F4804353645D4BF2
:102F10005B6C03F48043FB60FB685B4AFB699B08C6
:102F2000023352F82330BB61FB6903F003039B00BB
:102F30000F2202FA03F3DB43BA691340BB617B68DB
:102F4000524A93422BD07B68514A934225D07B68EA
:102F5000504A93421FD07B684F4A934219D07B68F6
:102F60004E4A934213D07B684D4A93420DD07B6802
:102F70004C4A934207D07B684B4A934201D10723C6
:102F80000EE008230CE006230AE0052308E00423F2
:102F900006E0032304E0022302E0012300E0002313
:102FA000FA6902F0030292009340BA691343BB61CD
:102FB0003549FB699B080233BA6941F823203B4B32
:102FC0009B68BB613B69DB43BA691340BB613B68EB
:102FD0005B6803F48013002B03D0BA693B69134389
:102FE000BB61324ABB699360304BDB68BB613B69B4
:102FF000DB43BA691340BB613B685B6803F40013B1
:10300000002B03D0BA693B691343BB61274ABB69F4
:10301000D360264B5B68BB613B69DB43BA691340F5
:10302000BB613B685B6803F40033002B03D0BA69D3
:103030003B691343BB611D4ABB6953601B4B1B6853
:10304000BB613B69DB43BA691340BB613B685B68AA
:1030500003F48033002B03D0BA693B691343BB618F
:10306000124ABB691360FB690133FB61FB690F2BDB
:103070007FF690AE00BF00BF2437BD465DF8047BED
:10308000704700BF00380240003801400000024095
:103090000004024000080240000C02400010024000
:1030A0000014024000180240001C0240003C014095
:1030B00080B485B000AF78600B467B807B681A696E
:1030C0007B881340002B02D00123FB7301E0002317
:1030D000FB73FB7B18461437BD465DF8047B7047D5
:1030E00080B483B000AF78600B467B8013467B7062
:1030F0007B78002B03D07A887B689A6103E07B8819
:103100001A047B689A6100BF0C37BD465DF8047BEA
:103110007047000080B586B000AF78607B68002BF8
:1031200001D1012367E27B681B6803F00103002BD8
:1031300075D0884B9B6803F00C03042B0CD0854B97
:103140009B6803F00C03082B12D1824B5B6803F4DD
:103150008003B3F5800F0BD17E4B1B6803F4003363
:10316000002B5BD07B685B68002B57D1012342E2C8
:103170007B685B68B3F5803F06D1764B1B68754A68
:1031800043F4803313601DE07B685B68B3F5A02FC8
:103190000CD1704B1B686F4A43F4802313606D4B56
:1031A0001B686C4A43F4803313600BE0694B1B6867
:1031B000684A23F480331360664B1B68654A23F426
:1031C000802313607B685B68002B13D0FFF7C0FA85
:1031D000386108E0FFF7BCFA02463B69D31A642B5A
:1031E00001D9032307E25B4B1B6803F40033002B78
:1031F000F0D014E0FFF7ACFA386108E0FFF7A8FA66
:1032000002463B69D31A642B01D90323F3E1514BE6
:103210001B6803F40033002BF0D100E000BF7B6893
:103220001B6803F00203002B63D04A4B9B6803F03A
:103230000C03002B0BD0474B9B6803F00C03082BAF
:103240001CD1444B5B6803F48003002B16D1414B27
:103250001B6803F00203002B05D07B68DB68012BA1
:1032600001D00123C7E13B4B1B6823F0F8027B68C8
:103270001B69DB00374913430B603AE07B68DB686E
:10328000002B20D0344B01221A60FFF761FA38611D
:1032900008E0FFF75DFA02463B69D31A022B01D919
:1032A0000323A8E12B4B1B6803F00203002BF0D093
:1032B000284B1B6823F0F8027B681B69DB0025495B
:1032C00013430B6015E0244B00221A60FFF740FA0D
:1032D000386108E0FFF73CFA02463B69D31A022B3B
:1032E00001D9032387E11B4B1B6803F00203002B6A
:1032F000F0D17B681B6803F00803002B36D07B6895
:103300005B69002B16D0154B01221A60FFF720FADB
:10331000386108E0FFF71CFA02463B69D31A022B1A
:1033200001D9032367E10B4B5B6F03F00203002B12
:10333000F0D01BE0094B00221A60FFF709FA386150
:103340000EE0FFF705FA02463B69D31A022B07D9B4
:10335000032350E10038024000004742800E4742FC
:10336000884B5B6F03F00203002BEAD17B681B687C
:1033700003F00403002B00F097800023FB75814BC2
:103380001B6C03F08053002B0FD10023BB607D4BDF
:103390001B6C7C4A43F0805313647A4B1B6C03F024
:1033A0008053BB60BB680123FB75774B1B6803F43C
:1033B0008073002B18D1744B1B68734A43F48073DD
:1033C0001360FFF7C5F9386108E0FFF7C1F902465D
:1033D0003B69D31A022B01D903230CE16A4B1B680A
:1033E00003F48073002BF0D07B689B68012B06D11F
:1033F000644B1B6F634A43F0010313671CE07B6857
:103400009B68052B0CD15F4B1B6F5E4A43F0040396
:1034100013675C4B1B6F5B4A43F0010313670BE0C0
:10342000584B1B6F574A23F001031367554B1B6F13
:10343000544A23F0040313677B689B68002B15D064
:10344000FFF786F938610AE0FFF782F902463B6927
:10345000D31A41F28832934201D90323CBE0494B7E
:103460001B6F03F00203002BEED014E0FFF770F99E
:1034700038610AE0FFF76CF902463B69D31A41F262
:103480008832934201D90323B5E03E4B1B6F03F012
:103490000203002BEED1FB7D012B05D1394B1B6CB8
:1034A000384A23F0805313647B689B69002B00F03B
:1034B000A180344B9B6803F00C03082B5CD07B6825
:1034C0009B69022B41D1314B00221A60FFF740F972
:1034D000386108E0FFF73CF902463B69D31A022B3A
:1034E00001D9032387E0274B1B6803F00073002BEF
:1034F000F0D17B68DA697B681B6A1A437B685B6A78
:103500009B011A437B689B6A5B08013B1B041A43BF
:103510007B68DB6A1B061B4913434B601B4B012274
:103520001A60FFF715F9386108E0FFF711F9024654
:103530003B69D31A022B01D903235CE0114B1B68B2
:1035400003F00073002BF0D054E0104B00221A60FF
:10355000FFF7FEF8386108E0FFF7FAF802463B692A
:10356000D31A022B01D9032345E0064B1B6803F055
:103570000073002BF0D13DE07B689B69012B07D1E4
:10358000012338E0003802400070004060004742EC
:103590001B4B5B68FB607B689B69012B28D0FB6839
:1035A00003F480027B68DB699A4221D1FB6803F057
:1035B0003F027B681B6A9A421AD1FA6847F6C073C9
:1035C00013407A68526A9201934211D1FB6803F466
:1035D00040327B689B6A5B08013B1B049A4207D11F
:1035E000FB6803F070627B68DB6A1B069A4201D0BD
:1035F000012300E0002318461837BD4680BD00BFF8
:103600000038024080B584B000AF786039607B68D4
:10361000002B01D10123CCE0684B1B6803F00703AA
:103620003A689A420CD9654B3A68D2B21A70634B29
:103630001B6803F007033A689A4201D00123B8E0FF
:103640007B681B6803F00203002B20D07B681B689B
:1036500003F00403002B05D0594B9B68584A43F4F0
:10366000E05393607B681B6803F00803002B05D0D0
:10367000534B9B68524A43F460439360504B9B68A2
:1036800023F0F0027B689B684D4913438B607B6895
:103690001B6803F00103002B44D07B685B68012B9F
:1036A00007D1474B1B6803F40033002B19D10123CA
:1036B0007FE07B685B68022B03D07B685B68032B31
:1036C00007D13F4B1B6803F00073002B09D1012386
:1036D0006FE03B4B1B6803F00203002B01D1012379
:1036E00067E0374B9B6823F003027B685B683449D3
:1036F00013438B60FFF72CF8F8600AE0FFF728F817
:103700000246FB68D31A41F28832934201D903235F
:103710004FE02B4B9B6803F00C027B685B689B00BF
:103720009A42EBD1254B1B6803F007033A689A4293
:103730000CD2224B3A68D2B21A70204B1B6803F0AD
:1037400007033A689A4201D0012332E07B681B6884
:1037500003F00403002B08D0194B9B6823F4E052BC
:103760007B68DB68164913438B607B681B6803F03A
:103770000803002B09D0124B9B6823F460427B683E
:103780001B69DB000E4913438B6000F021F80246F1
:103790000B4B9B681B0903F00F030A49CB5C22FA11
:1037A00003F3094A1360094B1B681846FEF78CFFA8
:1037B000002318461037BD4680BD00BF003C0240C4
:1037C00000380240ACB100080400002008000020CE
:1037D0002DE9B04F94B000AF00237B640023FB645D
:1037E00000233B640023BB64794B9B6803F00C030C
:1037F000082B0DD0082B00F2E180002B02D0042B07
:1038000003D0DBE0734BBB64DBE0734BBB64D8E0FD
:103810006F4B5B6803F03F037B646D4B5B6803F4A5
:103820008003002B63D06A4B5B689B090022BB635B
:10383000FA63BB6BC3F308033B6300237B63D7E9E5
:103840000C4522462B464FF000004FF00001590175
:1038500041EAD261500102460B462146511A3961B4
:10386000294663EB01037B614FF000024FF0000338
:10387000D7E904AB59468B01514643EA916351465F
:103880008A015146B2EB0108594663EB01094FF03A
:1038900000024FF000034FEAC90343EA58734FEAAE
:1038A000C80290469946234618EB0303BB602B469B
:1038B00049EB0303FB604FF000024FF00003D7E930
:1038C000024529464B02214643EAD15321464A028A
:1038D000104619467B6C0022BB62FA62D7E90A23C4
:1038E000FDF762F902460B461346FB6458E0384B7D
:1038F0005B689B09002218461146C0F308033B622F
:1039000000237B62D7E9088942464B464FF000000E
:103910004FF00001590141EAD261500102460B46C5
:103920004146B2EB010A494663EB010B4FF000023E
:103930004FF000034FEA8B1343EA9A634FEA8A126F
:10394000B2EB0A0463EB0B054FF000024FF00003EB
:10395000EB0043EA5473E20014461D464346E31865
:103960003B604B4645EB03037B604FF000024FF09A
:103970000003D7E9004529468B02214643EA9153CB
:1039800021468A02104619467B6C0022BB61FA610F
:10399000D7E90623FDF708F902460B461346FB64F8
:1039A0000B4B5B681B0C03F0030301335B003B64B0
:1039B000FA6C3B6CB2FBF3F3BB6402E0054BBB64F7
:1039C00000BFBB6C18465037BD46BDE8B08F00BF86
:1039D000003802400024F40000127A0080B582B062
:1039E00000AFFEF7B5FE78605D4B1B685C4A43F0A4
:1039F0000103136008E0FEF7ABFE02467B68D31AB2
:103A0000022B01D90323A7E0554B1B6803F00203E7
:103A1000002BF0D0524B1B68514A43F080031360D7
:103A2000FEF796FE78604E4B00229A600AE0FEF7A1
:103A30008FFE02467B68D31A41F28832934201D945
:103A4000032389E0464B9B6803F00C03002BEED167
:103A5000FEF77EFE7860424B1B68414A23F45023F8
:103A6000136008E0FEF774FE02467B68D31A642BED
:103A700001D9032370E03A4B1B6803F40033002B99
:103A8000F0D1FEF765FE7860354B1B68344A23F0B1
:103A90008073136008E0FEF75BFE02467B68D31A72
:103AA000022B01D9032357E02D4B1B6803F0007351
:103AB000002BF0D1FEF74CFE7860294B1B68284A9A
:103AC00023F08063136008E0FEF742FE02467B6845
:103AD000D31A022B01D903233EE0214B1B6803F0CC
:103AE0000063002BF0D11E4B1E4A5A601C4B1E4A2D
:103AF000C3F884201A4BDB68194A23F4F853D360C7
:103B0000174BDB68164A23F40053D360144BDB6871
:103B1000134A43F41F03D360114BDB68104A43F48C
:103B20000013D3600E4B5B6F0D4A23F00103536704
:103B30000B4B5B6F0A4A43F0807353670B4B0C4A85
:103B40001A600C4B1B681846FEF7BEFD0346002B9F
:103B500001D0012300E0002318460837BD4680BD90
:103B60000038024010300004003000200400002023
:103B70000024F4000800002080B582B000AF786017
:103B80007B68002B01D101237BE07B685B6A002B03
:103B900008D17B685B68B3F5827F09D07B6800221F
:103BA000DA6105E07B6800221A617B6800225A61B5
:103BB0007B6800229A627B6893F85130DBB2002B5D
:103BC00006D17B68002283F850207868FEF7E4FB7A
:103BD0007B68022283F851207B681B681A687B6827
:103BE0001B6822F040021A607B685B6803F48272F3
:103BF0007B689B6803F404431A437B68DB6803F427
:103C000000631A437B681B6903F002031A437B6855
:103C10005B6903F001031A437B689B6903F400733B
:103C20001A437B68DB6903F038031A437B681B6A1D
:103C300003F0800342EA03017B689B6A03F40052AD
:103C40007B681B680A431A607B689B691B0C03F046
:103C500004017B685B6A03F010027B681B680A43FF
:103C60005A607B681B68DA697B681B6822F4006213
:103C7000DA617B6800225A657B68012283F8512053
:103C8000002318460837BD4680BD80B588B000AF18
:103C9000F860B9603B601346FB80FEF759FDF861A0
:103CA000FB887B83FB6893F85130DBB2012B01D09A
:103CB00002232AE1BB68002B02D0FB88002B01D134
:103CC000012322E1FB6893F85030012B01D102233C
:103CD0001BE1FB68012283F85020FB68032283F874
:103CE0005120FB6800225A65FB68BA681A63FB68BA
:103CF000FA889A86FB68FA88DA86FB6800229A635B
:103D0000FB6800229A87FB680022DA87FB680022A2
:103D10005A64FB6800221A64FB689B68B3F5004F85
:103D20000FD1FB681B681A68FB681B6822F0400211
:103D30001A60FB681B681A68FB681B6842F48042C3
:103D40001A60FB681B681B6803F04003402B07D018
:103D5000FB681B681A68FB681B6842F040021A6027
:103D6000FB68DB68B3F5006F52D1FB685B68002B22
:103D700002D07B8B012B45D1FB681B6B1A88FB683B
:103D80001B68DA60FB681B6B9A1CFB681A63FB6894
:103D9000DB8E9BB2013B9AB2FB68DA8632E0FB68AD
:103DA0001B689B6803F00203022B12D1FB681B6B9C
:103DB0001A88FB681B68DA60FB681B6B9A1CFB683F
:103DC0001A63FB68DB8E9BB2013B9AB2FB68DA8612
:103DD00018E0FEF7BDFC0246FB69D31A3A689A4226
:103DE00003D83B68B3F1FF3F02D13B68002B09D1F8
:103DF000FB68012283F85120FB68002283F85020E1
:103E0000032382E0FB68DB8E9BB2002BC7D153E01B
:103E1000FB685B68002B02D07B8B012B47D1FB68D2
:103E20001A6BFB681B680C3312781A70FB681B6BEB
:103E30005A1CFB681A63FB68DB8E9BB2013B9AB28B
:103E4000FB68DA8633E0FB681B689B6803F00203BB
:103E5000022B13D1FB681A6BFB681B680C331278BA
:103E60001A70FB681B6B5A1CFB681A63FB68DB8EBD
:103E70009BB2013B9AB2FB68DA8618E0FEF768FC59
:103E80000246FB69D31A3A689A4203D83B68B3F1F9
:103E9000FF3F02D13B68002B09D1FB68012283F868
:103EA0005120FB68002283F8502003232DE0FB689B
:103EB000DB8E9BB2002BC6D1FA693968F86800F036
:103EC00059FA0346002B02D0FB6820225A65FB6892
:103ED0009B68002B0AD100237B61FB681B68DB68B1
:103EE0007B61FB681B689B687B617B69FB680122C7
:103EF00083F85120FB68002283F85020FB685B6D3B
:103F0000002B01D0012300E0002318462037BD46D6
:103F100080BD80B58AB000AFF860B9607A607B8000
:103F200001237B62FEF714FC3862FB6893F8513082
:103F3000FB77FB685B68BB617B88FB82FB7F012BA7
:103F40000CD0BB69B3F5827F06D1FB689B68002B60
:103F500002D1FB7F042B01D002237FE1BB68002B41
:103F600005D07B68002B02D07B88002B01D1012378
:103F700074E1FB6893F85030012B01D102236DE10D
:103F8000FB68012283F85020FB6893F85130DBB2C4
:103F9000042B03D0FB68052283F85120FB68002224
:103FA0005A65FB687A689A63FB687A88DA87FB68E7
:103FB0007A889A87FB68BA681A63FB687A88DA8617
:103FC000FB687A889A86FB6800221A64FB680022E4
:103FD0005A64FB681B681B6803F04003402B07D042
:103FE000FB681B681A68FB681B6842F040021A6095
:103FF000FB68DB68B3F5006F7ED1FB685B68002B64
:1040000002D0FB8A012B6CD1FB681B6B1A88FB6802
:104010001B68DA60FB681B6B9A1CFB681A63FB6801
:10402000DB8E9BB2013B9AB2FB68DA8659E0FB68F3
:104030001B689B6803F00203022B1BD1FB68DB8E1D
:104040009BB2002B16D07B6A012B13D1FB681B6B34
:104050001A88FB681B68DA60FB681B6B9A1CFB689C
:104060001A63FB68DB8E9BB2013B9AB2FB68DA866F
:1040700000237B62FB681B689B6803F00103012B34
:1040800019D1FB68DB8F9BB2002B14D0FB681B6837
:10409000DA68FB689B6B92B21A80FB689B6B9A1C78
:1040A000FB689A63FB68DB8F9BB2013B9AB2FB68AB
:1040B000DA8701237B62FEF74BFB02463B6AD31A89
:1040C0003A6B9A420DD83B6BB3F1FF3F09D0FB68C6
:1040D000012283F85120FB68002283F8502003233B
:1040E000BCE0FB68DB8E9BB2002BA0D1FB68DB8FB2
:1040F0009BB2002B9BD182E0FB685B68002B02D057
:10410000FB8A012B71D1FB681A6BFB681B680C33AF
:1041100012781A70FB681B6B5A1CFB681A63FB68E9
:10412000DB8E9BB2013B9AB2FB68DA865DE0FB68EE
:104130001B689B6803F00203022B1CD1FB68DB8E1B
:104140009BB2002B17D07B6A012B14D1FB681A6B32
:10415000FB681B680C3312781A70FB681B6B5A1CC7
:10416000FB681A63FB68DB8E9BB2013B9AB2FB686B
:10417000DA8600237B62FB681B689B6803F00103FF
:10418000012B19D1FB68DB8F9BB2002B14D0FB688D
:104190001B68DA68FB689B6BD2B21A70FB689B6B7A
:1041A0005A1CFB689A63FB68DB8F9BB2013B9AB297
:1041B000FB68DA8701237B62FEF7CAFA02463B6A94
:1041C000D31A3A6B9A4203D83B6BB3F1FF3F02D14B
:1041D0003B6B002B09D1FB68012283F85120FB685F
:1041E000002283F85020032338E0FB68DB8E9BB26B
:1041F000002B9CD1FB68DB8F9BB2002B97D13A6AD6
:10420000396BF86800F0B6F80346002B08D0FB685D
:1042100020225A65FB68002283F8502001231DE00C
:10422000FB689B68002B0AD100233B61FB681B687D
:10423000DB683B61FB681B689B683B613B69FB6813
:10424000012283F85120FB68002283F85020FB688C
:104250005B6D002B01D0012300E0002318462837B6
:10426000BD4680BD80B588B000AFF860B9603B60E6
:104270001346FB71FEF76CFA0246BB6A9B1A3A685A
:104280001344FB61FEF764FAB861394B1B685B01AC
:104290001B0DFA6902FB03F37B6154E03B68B3F149
:1042A000FF3F50D0FEF754FA0246BB69D31AFA69B1
:1042B0009A4202D9FB69002B3DD1FB681B685A6802
:1042C000FB681B6822F0E0025A60FB685B68B3F58C
:1042D000827F11D1FB689B68B3F5004F04D0FB6867
:1042E0009B68B3F5806F07D1FB681B681A68FB6891
:1042F0001B6822F040021A60FB689B6AB3F5005FFE
:104300000FD1FB681B681A68FB681B6822F4005217
:104310001A60FB681B681A68FB681B6842F400524D
:104320001A60FB68012283F85120FB68002283F8A1
:104330005020032317E07B69002B01D10023FB6190
:104340007B69013B7B61FB681B689A68BB68134013
:10435000BA689A420CBF01230023DBB21A46FB79EC
:104360009A429BD1002318462037BD4680BD00BF2E
:104370000400002080B588B002AFF860B9607A60B0
:104380007B680093BB6801220221F868FFF76AFF8F
:104390000346002B07D0FB685B6D43F02002FB68EF
:1043A0005A65032332E01B4B1B681B4AA2FB032305
:1043B0005B0D4FF47A7202FB03F37B61FB685B6871
:1043C000B3F5827F12D17B680093BB680022802105
:1043D000F868FFF747FF0346002B16D0FB685B6DBC
:1043E00043F02002FB685A6503230FE07B69002B32
:1043F0000AD07B69013B7B61FB681B689B6803F00B
:104400008003802BF2D000E000BF0023184618374D
:10441000BD4680BD04000020819F5E1680B500AFC0
:104420000449054803F006F903461A46034B1A707F
:1044300000BF80BDD812002010000020D412002040
:1044400080B400AF00231846BD465DF8047B70477A
:1044500080B582B000AF0346FB71FB791846FCF7CC
:10446000CBFE034618460837BD4680BD80B582B0F6
:1044700000AF0346FB71FB791846FCF7A3FF034628
:1044800018460837BD4680BD80B584B000AFB9601E
:104490007A603B600346FB73F87B3B687A68B968D7
:1044A000FCF7A6FF034618461037BD4680BD80B511
:1044B00084B000AFB9607A603B600346FB73F87B61
:1044C0003B687A68B968FCF7FDFF03461846103769
:1044D000BD4680BD80B582B000AF03463A60FB7137
:1044E0000B46BB71B979FB793A681846FDF76EF84F
:1044F000034618460837BD4680BD000080B584B02D
:1045000000AF0346FB71FB79084A9B0013445B68CC
:104510005B68FA7905490A44127A104698470346BF
:10452000FB73FB7B18461037BD4680BD0415002089
:1045300080B584B000AF0346FB710023FB73FB79A9
:104540000E4AD35C002B14D1FB790C4A9B00134418
:104550005B681B68FA7909490A44127A1046984741
:104560000346FB73FB7B002B03D1FB79034A01213C
:10457000D154FB7B18461037BD4680BD0415002082
:1045800090B587B000AFB9607A603B600346FB73BB
:10459000FB7B0A4A9B0013445B689C68FB7B074AD1
:1045A0001344187A3B687A68B968A0470346FB75DC
:1045B000FB7D18461C37BD4690BD00BF041500208A
:1045C00090B587B000AFB9607A603B600346FB737B
:1045D000FB7B0A4A9B0013445B68DC68FB7B074A51
:1045E0001344187A3B687A68B968A0470346FB759C
:1045F000FB7D18461C37BD4690BD00BF041500204A
:1046000080B584B000AF03463A60FB710B46BB71C6
:10461000FB79094A9B0013445B681B69FA790649D8
:104620000A44107AB9793A6898470346FB73FB7BD2
:1046300018461037BD4680BD0415002080B485B0F3
:1046400000AF78607B6801331B78FB81FB891B021C
:104650001AB27B681B781BB213431BB2FB81FB8928
:1046600018461437BD465DF8047B704780B485B0AA
:1046700000AF78607B6803331B78FB60FB681B022C
:104680007A68023212781343FB60FB681B027A6877
:10469000013212781343FB60FB681B027A681278C0
:1046A0001343FB60FB6818461437BD465DF8047B76
:1046B000704780B483B000AF78600B467B807B6826
:1046C0005A1C7A607A88D2B21A707B881B0A7B8067
:1046D0007B685A1C7A607A88D2B21A7000BF0C3795
:1046E000BD465DF8047B704780B483B000AF78604E
:1046F00039607B685A1C7A603A68D2B21A703B689B
:104700001B0A3B607B685A1C7A603A68D2B21A7006
:104710003B681B0A3B607B685A1C7A603A68D2B2DD
:104720001A703B681B0A3B607B685A1C7A603A68C7
:10473000D2B21A7000BF0C37BD465DF8047B7047DB
:1047400080B487B000AFF860B9607A60FB687B61C5
:10475000BB683B617B68002B0DD03A69531C3B6101
:104760007B69591C796112781A707B68013B7B6008
:104770007B68002BF1D100BF1C37BD465DF8047B80
:10478000704780B487B000AFF860B9607A60FB68AA
:104790007B617B695A1C7A61BA68D2B21A707B68F5
:1047A000013B7B607B68002BF3D100BF00BF1C374F
:1047B000BD465DF8047B704780B489B000AFF860F7
:1047C000B9607A60FB68FB61BB68BB6100237B61F9
:1047D000FB695A1CFA611B781946BB695A1CBA61FD
:1047E0001B78CB1A7B617B68013B7B607B68002B6D
:1047F00002D07B69002BEBD07B6918462437BD467D
:104800005DF8047B704780B483B000AF7860396096
:1048100002E07B6801337B607B681B78002B05D04E
:104820007B681B781A463B689342F2D17B681B7801
:1048300018460C37BD465DF8047B704780B485B0E0
:1048400000AF786039600023BB60BB68FB6029E083
:10485000274AFB681B0113441B68002B1DD0244A08
:10486000FB681B0113441A687B681B689A4216D1C7
:104870001F4AFB681B01134404331A687B689B685A
:104880009A420CD11A4AFB681B01134408331A6878
:104890007B685B699A4202D107E00123BB60FB6839
:1048A0000133FB60FB68012BD2D9FB68022B09D1D5
:1048B000BB68002B02D13B68022B01D1002310E022
:1048C00012230EE03B68002B08D1094AFB681B014C
:1048D00013440C331B88B3F5807F01D1102300E013
:1048E000002318461437BD465DF8047B704700BFAF
:1048F000E412002080B483B000AF00237B6002E0AC
:104900007B6801337B607B68012B06D8094A7B6892
:104910001B0113441B68002BF2D17B68022B14BFD0
:1049200001230023DBB218460C37BD465DF8047B3B
:10493000704700BFE412002080B485B000AF7860FB
:1049400039600023FB601FE0414AFB681B011344F0
:104950001A687B681B689A4213D13D4AFB681B01A9
:10496000134404331A687B689B689A4209D1384A19
:10497000FB681B01134408331A687B685B699A4221
:1049800006D0FB680133FB60FB68012BDCD900E03B
:1049900000BFFB68022B32D10023FB6002E0FB6802
:1049A0000133FB60FB68012B06D8294AFB681B0119
:1049B00013441B68002BF2D1FB68022B01D10023AA
:1049C00040E07B681A682249FB681B010B441A60AF
:1049D0007B689A681E49FB681B010B4404331A600C
:1049E0007B685A691A49FB681B010B4408331A603B
:1049F000174AFB681B0113440C3300221A803B68E2
:104A0000002B09D0124AFB681B0113440C331B888E
:104A1000002B01D0002315E03B68002B08D10C4A85
:104A2000FB681B0113440C331B8801339AB201E06D
:104A30004FF480720649FB681B010B440C331A804B
:104A4000FB68013318461437BD465DF8047B704798
:104A5000E412002080B485B000AF78607B68013B31
:104A60007B607B68012B25D8174A7B681B011344A8
:104A70000C331B88FB81FB89B3F5807F01D10023B8
:104A8000FB81FB89002B02D0FB89013BFB810E4A95
:104A90007B681B0113440C33FA891A80FB89002BB5
:104AA00005D1094A7B681B01134400221A600023C8
:104AB0007B7301E002237B737B7B18461437BD4672
:104AC0005DF8047B704700BFE412002080B485B01D
:104AD00000AF78600023FB6010E00D4AFB681B010B
:104AE00013441B687A689A4205D1094AFB681B0186
:104AF000134400221A60FB680133FB60FB68012B42
:104B0000EBD900BF00BF1437BD465DF8047B70478A
:104B1000E412002080B586B000AF78600023FB73FC
:104B20007B68DB78002B34D07B685B6B7B617B68B8
:104B300058787B6803F1380101237A69FFF740FD5B
:104B40000346002B02D00123FB7322E07B68002286
:104B5000DA707B689B6A7A69D21A7B681B6A9A4210
:104B600017D27B689B783B6110E07B681B6A7A698F
:104B700013447B617B6858787B6803F1380101231B
:104B80007A69FFF71DFD3B69013B3B613B69012BE6
:104B9000EBD8FB7B18461837BD4680BD80B584B086
:104BA00000AF786039600023FB737B685B6B3A6809
:104BB0009A421BD07868FFF7ADFF0346FB73FB7B7F
:104BC000002B13D17B6858787B6803F138010123EF
:104BD0003A68FFF7D5FC0346002B04D04FF0FF33B3
:104BE0003B600123FB737B683A685A63FB7B184682
:104BF0001037BD4680BD000080B584B000AF78603E
:104C00007868FFF787FF0346FB73FB7B002B59D1C6
:104C10007B681B78032B49D17B681B79012B45D11D
:104C20007B6803F138007B689B891A460021FFF7F7
:104C3000A8FD7B68383303F5FF734AF65521184603
:104C4000FFF737FD7B68383321491846FFF74CFDE5
:104C50007B68383303F5F2731E491846FFF744FDAD
:104C60007B68383303F5F4727B689B6919461046FC
:104C7000FFF73AFD7B68383303F5F6727B685B69B2
:104C800019461046FFF730FD7B685B6A5A1C7B684B
:104C90005A637B6858787B6803F138017B685A6BEC
:104CA0000123FFF78DFC7B6800221A717B685B781B
:104CB000002200211846FFF7A3FC0346002B01D079
:104CC0000123FB73FB7B18461037BD4680BD00BF38
:104CD000525261417272416180B483B000AF78601A
:104CE00039603B68023B3B607B68DB69023B3A68AA
:104CF0009A4201D3002308E07B685B891A463B682F
:104D000003FB02F27B681B6B134418460C37BD464D
:104D10005DF8047B704780B586B000AF786039607D
:104D20007B681B683B613B68012B04D93B69DB69ED
:104D30003A689A4202D301237B61BAE04FF0FF3315
:104D40007B613B691B78032B00F08280032B00F30F
:104D5000A680012B02D0022B55D0A0E03B68FB605F
:104D6000FB685B08FA681344FB603B699A6A3B691D
:104D70009B891946FB68B3FBF1F313441946386964
:104D8000FFF70CFF0346002B40F08C80FB685A1C99
:104D9000FA603A699289B3FBF2F101FB02F29B1AC5
:104DA0003A69134493F83830BB603B699A6A3B69AF
:104DB0009B891946FB68B3FBF1F313441946386924
:104DC000FFF7ECFE0346002B6ED13B699B891A4628
:104DD000FB68B3FBF2F101FB02F29B1A3A69134440
:104DE00093F838301B02BA681343BB603B6803F08A
:104DF0000103002B02D0BB681B0902E0BB68C3F3B0
:104E00000B037B6155E03B699A6A3B699B895B08B0
:104E10009BB219463B68B3FBF1F31344194638695A
:104E2000FFF7BCFE0346002B40D13B6903F138017C
:104E30003B685B003A699289B3FBF2F000FB02F237
:104E40009B1A0B441846FFF7F9FB03467B6130E0E1
:104E50003B699A6A3B699B899B089BB219463B68F0
:104E6000B3FBF1F3134419463869FFF797FE034685
:104E7000002B1DD13B6903F138013B689B003A6967
:104E80009289B3FBF2F000FB02F29B1A0B44184626
:104E9000FFF7ECFB034623F070437B6109E001233D
:104EA0007B6106E000BF04E000BF02E000BF00E05D
:104EB00000BF7B6918461837BD4680BD90B589B0E4
:104EC00000AFF860B9607A600223FB77BB68012B02
:104ED00040F20981FB68DB69BA689A4280F003817D
:104EE000FB681B78032B00F0B680032B00F3FB80DC
:104EF000012B03D0022B00F08380F4E0BB68BB6180
:104F0000BB695B08BA691344BB61FB689A6AFB68BA
:104F10009B891946BB69B3FBF1F313441946F86842
:104F2000FFF73CFE0346FB77FB7F002B40F0D4806D
:104F3000FB6803F13801BB695A1CBA61FA689289AF
:104F4000B3FBF2F000FB02F29B1A0B447B61BB68DF
:104F500003F00103002B0DD07B691B785BB203F0DB
:104F60000F035AB27B68DBB21B015BB213435BB227
:104F7000DBB201E07B68DBB27A691370FB68012267
:104F8000DA70FB689A6AFB689B891946BB69B3FBB8
:104F9000F1F313441946F868FFF700FE0346FB7768
:104FA000FB7F002B40F09A80FB6803F13801FB681F
:104FB0009B891A46BB69B3FBF2F000FB02F29B1A15
:104FC0000B447B61BB6803F00103002B03D07B68BB
:104FD0001B09DBB20EE07B691B785BB223F00F0389
:104FE0005AB27B681B0A5BB203F00F035BB2134338
:104FF0005BB2DBB27A691370FB680122DA7072E08F
:10500000FB689A6AFB689B895B089BB21946BB6880
:10501000B3FBF1F313441946F868FFF7BFFD0346ED
:10502000FB77FB7F002B5BD1FB6803F13801BB688A
:105030005B00FA689289B3FBF2F000FB02F29B1A64
:105040000B447A6892B211461846FFF732FBFB68B0
:105050000122DA7047E0FB689A6AFB689B899B082B
:105060009BB21946BB68B3FBF1F313441946F868C9
:10507000FFF794FD0346FB77FB7F002B32D17B6863
:1050800023F07044FB6803F13801BB689B00FA68A9
:105090009289B3FBF2F000FB02F29B1A0B44184614
:1050A000FFF7E4FA034603F0704323437B60FB6899
:1050B00003F13801BB689B00FA689289B3FBF2F0F8
:1050C00000FB02F29B1A0B4479681846FFF70CFBB1
:1050D000FB680122DA7006E000BF04E000BF02E0D6
:1050E00000BF00E000BFFB7F18462437BD4690BDDF
:1050F00080B588B000AFF860B9607A600023FB77B4
:10510000FB681B68BB61BB68012B04D9BB69DB6909
:10511000BA689A4201D302234BE07B68002B0CD083
:105120004FF0FF327968B869FFF7C8FE0346FB7796
:10513000FB7F002B01D0FB7F3BE0B968F868FFF7ED
:10514000EAFD78617B69002B31D07B69012B01D1AD
:1051500002232EE07B69B3F1FF3F01D1012328E058
:105160000022B968B869FFF7A9FE0346FB77FB7F09
:10517000002B01D0FB7F1CE0BB699A69BB69DB692E
:10518000023B9A420BD2BB699B695A1CBB699A616C
:10519000BB691B7943F00103DAB2BB691A717B6901
:1051A000BB60BB69DB69BA689A42C6D300E000BF46
:1051B000002318462037BD4680BD80B588B000AFBB
:1051C000786039607B681B683B613B68002B0DD1C0
:1051D0003B695B69BB61BB69002B04D03B69DB6940
:1051E000BA699A421BD30123BB6118E03968786819
:1051F000FFF791FDF860FB68012B01D8012370E0F7
:10520000FB68B3F1FF3F01D1FB686AE03B69DB69F2
:10521000FA689A4201D2FB6863E03B68BB61BB69F4
:10522000FB61FB690133FB613B69DB69FA699A4207
:1052300007D30223FB61FA69BB699A4201D90023B3
:105240004FE0F9697868FFF766FDF860FB68002BAE
:105250000ED0FB68012B03D0FB68B3F1FF3F01D1F7
:10526000FB683EE0FA69BB699A42DAD1002338E074
:1052700000BF4FF0FF32F9693869FFF71FFE0346A0
:10528000FB75FB7D002B09D13B68002B06D0FA692A
:1052900039683869FFF712FE0346FB75FB7D002B6A
:1052A00016D13B69FA695A613B699A693B69DB69C6
:1052B000023B9A4204D83B699B695A1E3B699A613A
:1052C0003B691B7943F00103DAB23B691A7107E0CD
:1052D000FB7D012B02D14FF0FF3300E00123FB6186
:1052E000FB6918462037BD4680BD80B487B000AF4B
:1052F000786039607B681B68FB607B68DB6A04331D
:105300003B61FB689B891A463B68B3FBF2F3FA6882
:105310005289B3FBF2F37B613B691A1D3A611B684A
:10532000BB60BB68002B01D1002310E07A69BB6829
:105330009A4207D37A69BB68D31A7B613B6904330D
:105340003B61E9E700BF3B691A687B691344184673
:105350001C37BD465DF8047B704780B586B000AF52
:10536000786039607B681B683B613B68B3F5001F60
:1053700004D23B6803F01F03002B01D0022371E02D
:105380007B683A685A617B689B687B617B69002B0C
:1053900006D13B691B78022B02D93B69DB6A7B6132
:1053A0007B69002B0CD13B685B093A6912899342F7
:1053B00001D3022356E03B69DA6A7B68DA612DE0AB
:1053C0003B695B891A463B699B8902FB03F3FB60DF
:1053D00019E07B6879691846FFF79DFC78617B6965
:1053E000B3F1FF3F01D101233CE07B69012B04D9DC
:1053F0003B69DB697A699A4201D3022332E03A6859
:10540000FB68D31A3B603A68FB689A42E1D279693B
:105410003869FFF761FC02467B68DA617B687A696C
:105420009A617B68DB69002B01D102231AE07B685B
:10543000DA693B699B8919463B68B3FBF1F31A446F
:105440007B68DA613B6903F138013B699B891A4645
:105450003B68B3FBF2F000FB02F29B1ACA187B68B0
:105460001A62002318461837BD4680BD80B586B045
:1054700000AF786039607B681B68FB607B685B69A4
:105480002033BB607B68DB69002B03D0BB68B3F5BE
:10549000001F01D30423BBE0FB689B891A46BB684D
:1054A000B3FBF2F101FB02F29B1A002B40F09D804E
:1054B0007B68DB695A1C7B68DA617B689B69002B1F
:1054C0000BD1BB685B09FA6812899342C0F08D80EA
:1054D0007B680022DA6104239AE0FB689B891A4604
:1054E000BB68B3FBF2F3FA685289013A1340002B10
:1054F0007BD17A687B689B6919461046FFF70BFCE5
:1055000078617B69012B01D8022381E07B69B3F1CB
:10551000FF3F01D101237BE0FB68DB697A699A4296
:1055200059D33B68002B04D17B680022DA61042345
:105530006EE07A687B689B6919461046FFF73DFE6E
:1055400078617B69002B01D1072361E07B69012B26
:1055500001D102235CE07B69B3F1FF3F01D101235C
:1055600056E0F868FFF7D6FA0346002B01D0012376
:105570004EE0FB6803F13800FB689B891A46002166
:10558000FFF7FFF800233B617969F868FFF7A4FB98
:105590000246FB685A6312E0FB680122DA70F86881
:1055A000FFF7B8FA0346002B01D0012330E03B6936
:1055B00001333B61FB685B6B5A1CFB685A63FB68F9
:1055C0005B891A463B699342E6D3FB685A6B3B6999
:1055D000D21AFB685A637B687A699A617969F868BC
:1055E000FFF77AFB02467B68DA617B68BA685A612A
:1055F000FB6803F13801FB689B891A46BB68B3FB63
:10560000F2F000FB02F29B1ACA187B681A620023B0
:1056100018461837BD4680BD80B586B000AF7860AB
:1056200039607B681B68FB6000217868FFF795FE96
:105630000346FB75FB7D002B2BD100233B617B6870
:10564000DB691946F868FFF7A9FA0346FB75FB7D8D
:10565000002B1DD17B681B6A1B78E52B04D07B686F
:105660001B6A1B78002B07D13B6901333B613A6908
:105670003B689A4202D10CE000233B61012178682B
:10568000FFF7F4FE0346FB75FB7D002BD7D000E04F
:1056900000BFFB7D042B01D10723FB75FB7D184662
:1056A0001837BD4680BD80B584B000AF78603960E2
:1056B0003B681A331846FEF7C1FF0346FB607B6860
:1056C0001B78032B09D13B6814331846FEF7B6FF4D
:1056D00003461B04FA681343FB60FB681846103747
:1056E000BD4680BD80B584B000AFF860B9607A6017
:1056F000BB681A337A6892B211461846FEF7D9FF92
:10570000FB681B78032B09D1BB6803F114027B688B
:105710001B0C9BB219461046FEF7CBFF00BF10379B
:10572000BD4680BD90B587B000AF786039603B68FA
:105730001A331846FEF782FF0346002B01D00023E0
:1057400059E03B681B7803F03F035A1E13465B0089
:1057500013449B0013447B610123FB8100233B61C5
:1057600033E0274A3B6913441B781A463B681344CD
:105770001846FEF763FF0346BB81FB89002B1AD056
:105780007B69FE2B12D8BB89184601F09FFF0346A8
:105790001C467B695A1C7A615B007A6813441B883B
:1057A000184601F093FF03469C4201D0002322E0FB
:1057B000BB89FB8106E0BB894FF6FF72934201D0A3
:1057C000002318E03B6901333B613B690C2BC8D9CE
:1057D0003B681B7803F04003002B0BD0FB89002BA8
:1057E00008D07B695B007A6813441B88002B01D0CA
:1057F000002300E0012318461C37BD4690BD00BFC2
:105800003CB2000880B588B000AFF860B9601146BE
:105810001A460B46FB711346BB71BB680D33BA7950
:105820001A70BB680B330F221A70BB680C3300224E
:105830001A70BB681A3300211846FEF73AFFFB794D
:105840005A1E13465B0013449B001344FB61002364
:10585000FB820023BB61FB8A4FF6FF72934207D0A5
:10586000FB695A1CFA615B00FA6813441B88FB82CF
:10587000174ABB6913441B781A46BB681344FA8A5B
:1058800011461846FEF715FFFB8A002B02D14FF692
:10589000FF73FB82BB690133BB61BB690C2BDAD997
:1058A000FB8A4FF6FF72934206D0FB695B00FA68F1
:1058B00013441B88002B03D1FB7943F04003FB7199
:1058C000BB68FA791A7000BF2037BD4680BD00BFA3
:1058D0003CB2000880B58CB000AFF860B9607A6067
:1058E0003B600B22B968F868FEF72AFF3B68052B7E
:1058F0002BD93B68FB6122E07B689A1C7A601B888D
:105900007B840023BB6217E0FB695A007B8C03F0A9
:1059100001031344FB617B8C5B087B84FB6903F40C
:105920008033002B05D0FB6983F4883383F0210397
:10593000FB61BB6A0133BB62BB6A0F2BE4D97B6896
:105940001B88002BD8D1FB693B600723BB623B68F7
:10595000DBB203F00F03DBB2303387F82F3097F858
:105960002F30392B04D997F82F30073387F82F3091
:10597000BB6A5A1EBA6230333B4497F82F2003F8B3
:105980001C2C3B681B093B603B68002BDFD107F1F7
:105990001402BB6A13447E221A7000237B6202E069
:1059A0007B6A01337B627A6ABB6A9A4205D2FA68E3
:1059B0007B6A13441B78202BF2D1BB6A072B07D8D4
:1059C000BB6A5A1CBA6230333B4413F81C1C00E01B
:1059D00020217B6A5A1C7A62FA6813440A461A70BC
:1059E0007B6A072BE9D900BF00BF3037BD4680BDB9
:1059F00080B485B000AF78600023FB730B23BB60DD
:105A0000FB7BDAB25208DB011343DAB27B68591C24
:105A100079601B781344FB73BB68013BBB60BB68B8
:105A2000002BEDD1FB7B18461437BD465DF8047B97
:105A3000704780B586B000AF78607B681B683B61BB
:105A400000217868FFF789FC0346FB75FB7D002B7E
:105A500001D0FB7DA9E0FF233B753B7D7B757B6817
:105A60004FF0FF321A637B68DB6919463869FFF72C
:105A700095F80346FB75FB7D002B40F090807B681A
:105A80001B6A1B78BB75BB7D002B02D10423FB7501
:105A90008AE07B681B6A0B331B7803F03F03FB73C0
:105AA0007B68FA7B9A71BB7DE52B07D0FB7B03F00B
:105AB0000803002B09D0FB7B0F2B06D0FF237B753F
:105AC0007B684FF0FF321A635EE0FB7B0F2B36D111
:105AD0007B6893F82F3003F04003002B54D1BB7D3B
